{
  "contractName": "Logistics",
  "abi": [
    {
      "anonymous": false,
      "inputs": [
        {
          "indexed": false,
          "internalType": "uint256",
          "name": "orderId",
          "type": "uint256"
        },
        {
          "indexed": false,
          "internalType": "address",
          "name": "sender",
          "type": "address"
        },
        {
          "indexed": false,
          "internalType": "address",
          "name": "recipient",
          "type": "address"
        },
        {
          "indexed": false,
          "internalType": "uint256",
          "name": "price",
          "type": "uint256"
        }
      ],
      "name": "OrderAdded",
      "type": "event"
    },
    {
      "anonymous": false,
      "inputs": [
        {
          "indexed": false,
          "internalType": "uint256",
          "name": "orderId",
          "type": "uint256"
        },
        {
          "indexed": false,
          "internalType": "string",
          "name": "changeDescription",
          "type": "string"
        },
        {
          "indexed": false,
          "internalType": "uint256",
          "name": "timestamp",
          "type": "uint256"
        }
      ],
      "name": "OrderChanged",
      "type": "event"
    },
    {
      "inputs": [
        {
          "internalType": "uint256",
          "name": "",
          "type": "uint256"
        }
      ],
      "name": "orderChanges",
      "outputs": [
        {
          "internalType": "uint256",
          "name": "orderId",
          "type": "uint256"
        },
        {
          "internalType": "string",
          "name": "changeDescription",
          "type": "string"
        },
        {
          "internalType": "uint256",
          "name": "timestamp",
          "type": "uint256"
        }
      ],
      "stateMutability": "view",
      "type": "function",
      "constant": true
    },
    {
      "inputs": [
        {
          "internalType": "uint256",
          "name": "",
          "type": "uint256"
        }
      ],
      "name": "orders",
      "outputs": [
        {
          "internalType": "address",
          "name": "sender",
          "type": "address"
        },
        {
          "internalType": "address",
          "name": "recipient",
          "type": "address"
        },
        {
          "internalType": "uint256",
          "name": "distance",
          "type": "uint256"
        },
        {
          "internalType": "string",
          "name": "cargoType",
          "type": "string"
        },
        {
          "internalType": "uint256",
          "name": "price",
          "type": "uint256"
        },
        {
          "internalType": "bool",
          "name": "isCompleted",
          "type": "bool"
        },
        {
          "internalType": "bool",
          "name": "isCancelled",
          "type": "bool"
        },
        {
          "internalType": "uint256",
          "name": "escrow",
          "type": "uint256"
        }
      ],
      "stateMutability": "view",
      "type": "function",
      "constant": true
    },
    {
      "inputs": [
        {
          "internalType": "uint256",
          "name": "",
          "type": "uint256"
        }
      ],
      "name": "reviews",
      "outputs": [
        {
          "internalType": "uint256",
          "name": "orderId",
          "type": "uint256"
        },
        {
          "internalType": "address",
          "name": "reviewer",
          "type": "address"
        },
        {
          "internalType": "string",
          "name": "comment",
          "type": "string"
        },
        {
          "internalType": "uint256",
          "name": "rating",
          "type": "uint256"
        }
      ],
      "stateMutability": "view",
      "type": "function",
      "constant": true
    },
    {
      "inputs": [
        {
          "internalType": "address",
          "name": "_recipient",
          "type": "address"
        },
        {
          "internalType": "uint256",
          "name": "_distance",
          "type": "uint256"
        },
        {
          "internalType": "string",
          "name": "_cargoType",
          "type": "string"
        },
        {
          "internalType": "string",
          "name": "_price",
          "type": "string"
        }
      ],
      "name": "addOrder",
      "outputs": [],
      "stateMutability": "payable",
      "type": "function",
      "payable": true
    },
    {
      "inputs": [
        {
          "internalType": "uint256",
          "name": "_orderId",
          "type": "uint256"
        },
        {
          "internalType": "string",
          "name": "_comment",
          "type": "string"
        },
        {
          "internalType": "uint256",
          "name": "_rating",
          "type": "uint256"
        }
      ],
      "name": "completeOrder",
      "outputs": [],
      "stateMutability": "payable",
      "type": "function",
      "payable": true
    },
    {
      "inputs": [
        {
          "internalType": "uint256",
          "name": "_orderId",
          "type": "uint256"
        }
      ],
      "name": "cancelOrder",
      "outputs": [],
      "stateMutability": "nonpayable",
      "type": "function"
    },
    {
      "inputs": [
        {
          "internalType": "uint256",
          "name": "_orderId",
          "type": "uint256"
        }
      ],
      "name": "getOrderChanges",
      "outputs": [
        {
          "components": [
            {
              "internalType": "uint256",
              "name": "orderId",
              "type": "uint256"
            },
            {
              "internalType": "string",
              "name": "changeDescription",
              "type": "string"
            },
            {
              "internalType": "uint256",
              "name": "timestamp",
              "type": "uint256"
            }
          ],
          "internalType": "struct Logistics.OrderChange[]",
          "name": "",
          "type": "tuple[]"
        }
      ],
      "stateMutability": "view",
      "type": "function",
      "constant": true
    },
    {
      "inputs": [],
      "name": "getOrderCount",
      "outputs": [
        {
          "internalType": "uint256",
          "name": "",
          "type": "uint256"
        }
      ],
      "stateMutability": "view",
      "type": "function",
      "constant": true
    },
    {
      "inputs": [],
      "name": "getReviewCount",
      "outputs": [
        {
          "internalType": "uint256",
          "name": "",
          "type": "uint256"
        }
      ],
      "stateMutability": "view",
      "type": "function",
      "constant": true
    },
    {
      "inputs": [
        {
          "internalType": "uint256",
          "name": "_orderId",
          "type": "uint256"
        }
      ],
      "name": "getReviewsByOrder",
      "outputs": [
        {
          "components": [
            {
              "internalType": "uint256",
              "name": "orderId",
              "type": "uint256"
            },
            {
              "internalType": "address",
              "name": "reviewer",
              "type": "address"
            },
            {
              "internalType": "string",
              "name": "comment",
              "type": "string"
            },
            {
              "internalType": "uint256",
              "name": "rating",
              "type": "uint256"
            }
          ],
          "internalType": "struct Logistics.Review[]",
          "name": "",
          "type": "tuple[]"
        }
      ],
      "stateMutability": "view",
      "type": "function",
      "constant": true
    },
    {
      "inputs": [
        {
          "internalType": "uint256",
          "name": "startIndex",
          "type": "uint256"
        },
        {
          "internalType": "uint256",
          "name": "endIndex",
          "type": "uint256"
        }
      ],
      "name": "getOrders",
      "outputs": [
        {
          "components": [
            {
              "internalType": "address",
              "name": "sender",
              "type": "address"
            },
            {
              "internalType": "address",
              "name": "recipient",
              "type": "address"
            },
            {
              "internalType": "uint256",
              "name": "distance",
              "type": "uint256"
            },
            {
              "internalType": "string",
              "name": "cargoType",
              "type": "string"
            },
            {
              "internalType": "uint256",
              "name": "price",
              "type": "uint256"
            },
            {
              "internalType": "bool",
              "name": "isCompleted",
              "type": "bool"
            },
            {
              "internalType": "bool",
              "name": "isCancelled",
              "type": "bool"
            },
            {
              "internalType": "uint256",
              "name": "escrow",
              "type": "uint256"
            }
          ],
          "internalType": "struct Logistics.Order[]",
          "name": "",
          "type": "tuple[]"
        }
      ],
      "stateMutability": "view",
      "type": "function",
      "constant": true
    }
  ],
  "bytecode": "0x608060405234801561001057600080fd5b50612996806100206000396000f3fe60806040526004361061009c5760003560e01c80637b40e311116100645780637b40e3111461016a5780638d0a5fbb146101a95780638f72fc77146101d4578063a85c38ef14610211578063e83ddcea14610255578063fe95d765146102955761009c565b8063039a1c73146100a15780634e5d1682146100bd578063514fcac7146100d9578063637267df14610102578063709dc7fb1461013f575b600080fd5b6100bb60048036038101906100b69190611a11565b6102d2565b005b6100d760048036038101906100d29190611ade565b61063b565b005b3480156100e557600080fd5b5061010060048036038101906100fb9190611b7d565b6108ef565b005b34801561010e57600080fd5b5061012960048036038101906101249190611b7d565b610b46565b6040516101369190611d53565b60405180910390f35b34801561014b57600080fd5b50610154610d5c565b6040516101619190611d84565b60405180910390f35b34801561017657600080fd5b50610191600480360381019061018c9190611b7d565b610d69565b6040516101a093929190611de9565b60405180910390f35b3480156101b557600080fd5b506101be610e2b565b6040516101cb9190611d84565b60405180910390f35b3480156101e057600080fd5b506101fb60048036038101906101f69190611e27565b610e37565b6040516102089190612003565b60405180910390f35b34801561021d57600080fd5b5061023860048036038101906102339190611b7d565b61114a565b60405161024c989796959493929190612043565b60405180910390f35b34801561026157600080fd5b5061027c60048036038101906102779190611b7d565b611284565b60405161028c94939291906120c8565b60405180910390f35b3480156102a157600080fd5b506102bc60048036038101906102b79190611b7d565b61136c565b6040516102c99190612239565b60405180910390f35b600083815481106102e6576102e561225b565b5b906000526020600020906007020160010160009054906101000a900473ffffffffffffffffffffffffffffffffffffffff1673ffffffffffffffffffffffffffffffffffffffff163373ffffffffffffffffffffffffffffffffffffffff1614610385576040517f08c379a000000000000000000000000000000000000000000000000000000000815260040161037c906122fc565b60405180910390fd5b600083815481106103995761039861225b565b5b906000526020600020906007020160050160009054906101000a900460ff16156103f8576040517f08c379a00000000000000000000000000000000000000000000000000000000081526004016103ef9061238e565b60405180910390fd5b6000838154811061040c5761040b61225b565b5b906000526020600020906007020160050160019054906101000a900460ff161561046b576040517f08c379a0000000000000000000000000000000000000000000000000000000008152600401610462906123fa565b60405180910390fd5b6001600084815481106104815761048061225b565b5b906000526020600020906007020160050160006101000a81548160ff021916908315150217905550600083815481106104bd576104bc61225b565b5b906000526020600020906007020160000160009054906101000a900473ffffffffffffffffffffffffffffffffffffffff1673ffffffffffffffffffffffffffffffffffffffff166108fc6000858154811061051c5761051b61225b565b5b9060005260206000209060070201600601549081150290604051600060405180830381858888f19350505050158015610559573d6000803e3d6000fd5b50600160405180608001604052808581526020013373ffffffffffffffffffffffffffffffffffffffff1681526020018481526020018381525090806001815401808255809150506001900390600052602060002090600402016000909190919091506000820151816000015560208201518160010160006101000a81548173ffffffffffffffffffffffffffffffffffffffff021916908373ffffffffffffffffffffffffffffffffffffffff160217905550604082015181600201908051906020019061062992919061170a565b50606082015181600301555050505050565b3373ffffffffffffffffffffffffffffffffffffffff168473ffffffffffffffffffffffffffffffffffffffff16036106a9576040517f08c379a00000000000000000000000000000000000000000000000000000000081526004016106a09061248c565b60405180910390fd5b60006106b4826115d8565b90508034146106f8576040517f08c379a00000000000000000000000000000000000000000000000000000000081526004016106ef9061251e565b60405180910390fd5b60006040518061010001604052803373ffffffffffffffffffffffffffffffffffffffff1681526020018773ffffffffffffffffffffffffffffffffffffffff16815260200186815260200185815260200183815260200160001515815260200160001515815260200134815250908060018154018082558091505060019003906000526020600020906007020160009091909190915060008201518160000160006101000a81548173ffffffffffffffffffffffffffffffffffffffff021916908373ffffffffffffffffffffffffffffffffffffffff16021790555060208201518160010160006101000a81548173ffffffffffffffffffffffffffffffffffffffff021916908373ffffffffffffffffffffffffffffffffffffffff16021790555060408201518160020155606082015181600301908051906020019061084392919061170a565b506080820151816004015560a08201518160050160006101000a81548160ff02191690831515021790555060c08201518160050160016101000a81548160ff02191690831515021790555060e0820151816006015550507fb86b42a1c9549d8c493944734280cd2a3b9fd72ab4aaf0ea4eb4d34d3cc3ecca60016000805490506108cd919061256d565b3387846040516108e094939291906125a1565b60405180910390a15050505050565b600081815481106109035761090261225b565b5b906000526020600020906007020160000160009054906101000a900473ffffffffffffffffffffffffffffffffffffffff1673ffffffffffffffffffffffffffffffffffffffff163373ffffffffffffffffffffffffffffffffffffffff16146109a2576040517f08c379a000000000000000000000000000000000000000000000000000000000815260040161099990612658565b60405180910390fd5b600081815481106109b6576109b561225b565b5b906000526020600020906007020160050160009054906101000a900460ff1615610a15576040517f08c379a0000000000000000000000000000000000000000000000000000000008152600401610a0c906126ea565b60405180910390fd5b600160008281548110610a2b57610a2a61225b565b5b906000526020600020906007020160050160016101000a81548160ff02191690831515021790555060008181548110610a6757610a6661225b565b5b906000526020600020906007020160000160009054906101000a900473ffffffffffffffffffffffffffffffffffffffff1673ffffffffffffffffffffffffffffffffffffffff166108fc60008381548110610ac657610ac561225b565b5b9060005260206000209060070201600601549081150290604051600060405180830381858888f19350505050158015610b03573d6000803e3d6000fd5b50610b43816040518060400160405280601681526020017f546865206f72646572207761732063616e63656c656400000000000000000000815250611652565b50565b60606000805b600280549050811015610ba7578360028281548110610b6e57610b6d61225b565b5b90600052602060002090600302016000015403610b94578180610b909061270a565b9250505b8080610b9f9061270a565b915050610b4c565b5060008167ffffffffffffffff811115610bc457610bc36118e6565b5b604051908082528060200260200182016040528015610bfd57816020015b610bea611790565b815260200190600190039081610be25790505b5090506000805b600280549050811015610d50578560028281548110610c2657610c2561225b565b5b90600052602060002090600302016000015403610d3d5760028181548110610c5157610c5061225b565b5b906000526020600020906003020160405180606001604052908160008201548152602001600182018054610c8490612781565b80601f0160208091040260200160405190810160405280929190818152602001828054610cb090612781565b8015610cfd5780601f10610cd257610100808354040283529160200191610cfd565b820191906000526020600020905b815481529060010190602001808311610ce057829003601f168201915b50505050508152602001600282015481525050838381518110610d2357610d2261225b565b5b60200260200101819052508180610d399061270a565b9250505b8080610d489061270a565b915050610c04565b50819350505050919050565b6000600180549050905090565b60028181548110610d7957600080fd5b9060005260206000209060030201600091509050806000015490806001018054610da290612781565b80601f0160208091040260200160405190810160405280929190818152602001828054610dce90612781565b8015610e1b5780601f10610df057610100808354040283529160200191610e1b565b820191906000526020600020905b815481529060010190602001808311610dfe57829003601f168201915b5050505050908060020154905083565b60008080549050905090565b606082821015610e7c576040517f08c379a0000000000000000000000000000000000000000000000000000000008152600401610e7390612824565b60405180910390fd5b6000805490508210610ec3576040517f08c379a0000000000000000000000000000000000000000000000000000000008152600401610eba90612890565b60405180910390fd5b600060018484610ed3919061256d565b610edd91906128b0565b905060008167ffffffffffffffff811115610efb57610efa6118e6565b5b604051908082528060200260200182016040528015610f3457816020015b610f216117b1565b815260200190600190039081610f195790505b50905060005b8281101561113e5760008187610f5091906128b0565b81548110610f6157610f6061225b565b5b9060005260206000209060070201604051806101000160405290816000820160009054906101000a900473ffffffffffffffffffffffffffffffffffffffff1673ffffffffffffffffffffffffffffffffffffffff1673ffffffffffffffffffffffffffffffffffffffff1681526020016001820160009054906101000a900473ffffffffffffffffffffffffffffffffffffffff1673ffffffffffffffffffffffffffffffffffffffff1673ffffffffffffffffffffffffffffffffffffffff1681526020016002820154815260200160038201805461104190612781565b80601f016020809104026020016040519081016040528092919081815260200182805461106d90612781565b80156110ba5780601f1061108f576101008083540402835291602001916110ba565b820191906000526020600020905b81548152906001019060200180831161109d57829003601f168201915b50505050508152602001600482015481526020016005820160009054906101000a900460ff161515151581526020016005820160019054906101000a900460ff161515151581526020016006820154815250508282815181106111205761111f61225b565b5b602002602001018190525080806111369061270a565b915050610f3a565b50809250505092915050565b6000818154811061115a57600080fd5b90600052602060002090600702016000915090508060000160009054906101000a900473ffffffffffffffffffffffffffffffffffffffff16908060010160009054906101000a900473ffffffffffffffffffffffffffffffffffffffff16908060020154908060030180546111cf90612781565b80601f01602080910402602001604051908101604052809291908181526020018280546111fb90612781565b80156112485780601f1061121d57610100808354040283529160200191611248565b820191906000526020600020905b81548152906001019060200180831161122b57829003601f168201915b5050505050908060040154908060050160009054906101000a900460ff16908060050160019054906101000a900460ff16908060060154905088565b6001818154811061129457600080fd5b90600052602060002090600402016000915090508060000154908060010160009054906101000a900473ffffffffffffffffffffffffffffffffffffffff16908060020180546112e390612781565b80601f016020809104026020016040519081016040528092919081815260200182805461130f90612781565b801561135c5780601f106113315761010080835404028352916020019161135c565b820191906000526020600020905b81548152906001019060200180831161133f57829003601f168201915b5050505050908060030154905084565b60606000805b6001805490508110156113cd5783600182815481106113945761139361225b565b5b906000526020600020906004020160000154036113ba5781806113b69061270a565b9250505b80806113c59061270a565b915050611372565b5060008167ffffffffffffffff8111156113ea576113e96118e6565b5b60405190808252806020026020018201604052801561142357816020015b611410611826565b8152602001906001900390816114085790505b5090506000805b6001805490508110156115cc57856001828154811061144c5761144b61225b565b5b906000526020600020906004020160000154036115b957600181815481106114775761147661225b565b5b9060005260206000209060040201604051806080016040529081600082015481526020016001820160009054906101000a900473ffffffffffffffffffffffffffffffffffffffff1673ffffffffffffffffffffffffffffffffffffffff1673ffffffffffffffffffffffffffffffffffffffff16815260200160028201805461150090612781565b80601f016020809104026020016040519081016040528092919081815260200182805461152c90612781565b80156115795780601f1061154e57610100808354040283529160200191611579565b820191906000526020600020905b81548152906001019060200180831161155c57829003601f168201915b5050505050815260200160038201548152505083838151811061159f5761159e61225b565b5b602002602001018190525081806115b59061270a565b9250505b80806115c49061270a565b91505061142a565b50819350505050919050565b6000808290506000805b8251811015611647576030838281518110611600576115ff61225b565b5b602001015160f81c60f81b60f81c60ff1661161b919061256d565b600a836116289190612906565b61163291906128b0565b9150808061163f9061270a565b9150506115e2565b508092505050919050565b600260405180606001604052808481526020018381526020014281525090806001815401808255809150506001900390600052602060002090600302016000909190919091506000820151816000015560208201518160010190805190602001906116be92919061170a565b506040820151816002015550507f1ec822473a4282de60e49e395024087a5dd6d3d333ea2868c0981a1e426aec6e8282426040516116fe93929190611de9565b60405180910390a15050565b82805461171690612781565b90600052602060002090601f016020900481019282611738576000855561177f565b82601f1061175157805160ff191683800117855561177f565b8280016001018555821561177f579182015b8281111561177e578251825591602001919060010190611763565b5b50905061178c9190611864565b5090565b60405180606001604052806000815260200160608152602001600081525090565b604051806101000160405280600073ffffffffffffffffffffffffffffffffffffffff168152602001600073ffffffffffffffffffffffffffffffffffffffff168152602001600081526020016060815260200160008152602001600015158152602001600015158152602001600081525090565b604051806080016040528060008152602001600073ffffffffffffffffffffffffffffffffffffffff16815260200160608152602001600081525090565b5b8082111561187d576000816000905550600101611865565b5090565b6000604051905090565b600080fd5b600080fd5b6000819050919050565b6118a881611895565b81146118b357600080fd5b50565b6000813590506118c58161189f565b92915050565b600080fd5b600080fd5b6000601f19601f8301169050919050565b7f4e487b7100000000000000000000000000000000000000000000000000000000600052604160045260246000fd5b61191e826118d5565b810181811067ffffffffffffffff8211171561193d5761193c6118e6565b5b80604052505050565b6000611950611881565b905061195c8282611915565b919050565b600067ffffffffffffffff82111561197c5761197b6118e6565b5b611985826118d5565b9050602081019050919050565b82818337600083830152505050565b60006119b46119af84611961565b611946565b9050828152602081018484840111156119d0576119cf6118d0565b5b6119db848285611992565b509392505050565b600082601f8301126119f8576119f76118cb565b5b8135611a088482602086016119a1565b91505092915050565b600080600060608486031215611a2a57611a2961188b565b5b6000611a38868287016118b6565b935050602084013567ffffffffffffffff811115611a5957611a58611890565b5b611a65868287016119e3565b9250506040611a76868287016118b6565b9150509250925092565b600073ffffffffffffffffffffffffffffffffffffffff82169050919050565b6000611aab82611a80565b9050919050565b611abb81611aa0565b8114611ac657600080fd5b50565b600081359050611ad881611ab2565b92915050565b60008060008060808587031215611af857611af761188b565b5b6000611b0687828801611ac9565b9450506020611b17878288016118b6565b935050604085013567ffffffffffffffff811115611b3857611b37611890565b5b611b44878288016119e3565b925050606085013567ffffffffffffffff811115611b6557611b64611890565b5b611b71878288016119e3565b91505092959194509250565b600060208284031215611b9357611b9261188b565b5b6000611ba1848285016118b6565b91505092915050565b600081519050919050565b600082825260208201905092915050565b6000819050602082019050919050565b611bdf81611895565b82525050565b600081519050919050565b600082825260208201905092915050565b60005b83811015611c1f578082015181840152602081019050611c04565b83811115611c2e576000848401525b50505050565b6000611c3f82611be5565b611c498185611bf0565b9350611c59818560208601611c01565b611c62816118d5565b840191505092915050565b6000606083016000830151611c856000860182611bd6565b5060208301518482036020860152611c9d8282611c34565b9150506040830151611cb26040860182611bd6565b508091505092915050565b6000611cc98383611c6d565b905092915050565b6000602082019050919050565b6000611ce982611baa565b611cf38185611bb5565b935083602082028501611d0585611bc6565b8060005b85811015611d415784840389528151611d228582611cbd565b9450611d2d83611cd1565b925060208a01995050600181019050611d09565b50829750879550505050505092915050565b60006020820190508181036000830152611d6d8184611cde565b905092915050565b611d7e81611895565b82525050565b6000602082019050611d996000830184611d75565b92915050565b600082825260208201905092915050565b6000611dbb82611be5565b611dc58185611d9f565b9350611dd5818560208601611c01565b611dde816118d5565b840191505092915050565b6000606082019050611dfe6000830186611d75565b8181036020830152611e108185611db0565b9050611e1f6040830184611d75565b949350505050565b60008060408385031215611e3e57611e3d61188b565b5b6000611e4c858286016118b6565b9250506020611e5d858286016118b6565b9150509250929050565b600081519050919050565b600082825260208201905092915050565b6000819050602082019050919050565b611e9c81611aa0565b82525050565b60008115159050919050565b611eb781611ea2565b82525050565b600061010083016000830151611ed66000860182611e93565b506020830151611ee96020860182611e93565b506040830151611efc6040860182611bd6565b5060608301518482036060860152611f148282611c34565b9150506080830151611f296080860182611bd6565b5060a0830151611f3c60a0860182611eae565b5060c0830151611f4f60c0860182611eae565b5060e0830151611f6260e0860182611bd6565b508091505092915050565b6000611f798383611ebd565b905092915050565b6000602082019050919050565b6000611f9982611e67565b611fa38185611e72565b935083602082028501611fb585611e83565b8060005b85811015611ff15784840389528151611fd28582611f6d565b9450611fdd83611f81565b925060208a01995050600181019050611fb9565b50829750879550505050505092915050565b6000602082019050818103600083015261201d8184611f8e565b905092915050565b61202e81611aa0565b82525050565b61203d81611ea2565b82525050565b600061010082019050612059600083018b612025565b612066602083018a612025565b6120736040830189611d75565b81810360608301526120858188611db0565b90506120946080830187611d75565b6120a160a0830186612034565b6120ae60c0830185612034565b6120bb60e0830184611d75565b9998505050505050505050565b60006080820190506120dd6000830187611d75565b6120ea6020830186612025565b81810360408301526120fc8185611db0565b905061210b6060830184611d75565b95945050505050565b600081519050919050565b600082825260208201905092915050565b6000819050602082019050919050565b60006080830160008301516121586000860182611bd6565b50602083015161216b6020860182611e93565b50604083015184820360408601526121838282611c34565b91505060608301516121986060860182611bd6565b508091505092915050565b60006121af8383612140565b905092915050565b6000602082019050919050565b60006121cf82612114565b6121d9818561211f565b9350836020820285016121eb85612130565b8060005b85811015612227578484038952815161220885826121a3565b9450612213836121b7565b925060208a019950506001810190506121ef565b50829750879550505050505092915050565b6000602082019050818103600083015261225381846121c4565b905092915050565b7f4e487b7100000000000000000000000000000000000000000000000000000000600052603260045260246000fd5b7f4f6e6c792074686520726563697069656e742063616e2066696e616c697a652060008201527f616e206f72646572000000000000000000000000000000000000000000000000602082015250565b60006122e6602883611d9f565b91506122f18261228a565b604082019050919050565b60006020820190508181036000830152612315816122d9565b9050919050565b7f546865206f726465722068617320616c7265616479206265656e20706c61636560008201527f6400000000000000000000000000000000000000000000000000000000000000602082015250565b6000612378602183611d9f565b91506123838261231c565b604082019050919050565b600060208201905081810360008301526123a78161236b565b9050919050565b7f546865206f72646572207761732063616e63656c656400000000000000000000600082015250565b60006123e4601683611d9f565b91506123ef826123ae565b602082019050919050565b60006020820190508181036000830152612413816123d7565b9050919050565b7f53656e64657220616e6420726563697069656e742063616e6e6f74206265207460008201527f68652073616d6520706572736f6e000000000000000000000000000000000000602082015250565b6000612476602e83611d9f565b91506124818261241a565b604082019050919050565b600060208201905081810360008301526124a581612469565b9050919050565b7f53656e7420457468657220646f6573206e6f74206d617463682074686520707260008201527f696365206f6620746865206f7264657200000000000000000000000000000000602082015250565b6000612508603083611d9f565b9150612513826124ac565b604082019050919050565b60006020820190508181036000830152612537816124fb565b9050919050565b7f4e487b7100000000000000000000000000000000000000000000000000000000600052601160045260246000fd5b600061257882611895565b915061258383611895565b9250828210156125965761259561253e565b5b828203905092915050565b60006080820190506125b66000830187611d75565b6125c36020830186612025565b6125d06040830185612025565b6125dd6060830184611d75565b95945050505050565b7f4f6e6c79207468652073656e6465722063616e2063616e63656c20616e206f7260008201527f6465720000000000000000000000000000000000000000000000000000000000602082015250565b6000612642602383611d9f565b915061264d826125e6565b604082019050919050565b6000602082019050818103600083015261267181612635565b9050919050565b7f596f752063616e6e6f742063616e63656c206120636f6d706c65746564206f7260008201527f6465720000000000000000000000000000000000000000000000000000000000602082015250565b60006126d4602383611d9f565b91506126df82612678565b604082019050919050565b60006020820190508181036000830152612703816126c7565b9050919050565b600061271582611895565b91507fffffffffffffffffffffffffffffffffffffffffffffffffffffffffffffffff82036127475761274661253e565b5b600182019050919050565b7f4e487b7100000000000000000000000000000000000000000000000000000000600052602260045260246000fd5b6000600282049050600182168061279957607f821691505b6020821081036127ac576127ab612752565b5b50919050565b7f456e6420696e646578206d7573742062652067726561746572207468616e206f60008201527f7220657175616c20746f20737461727420696e64657800000000000000000000602082015250565b600061280e603683611d9f565b9150612819826127b2565b604082019050919050565b6000602082019050818103600083015261283d81612801565b9050919050565b7f456e6420696e646578206f7574206f6620626f756e6473000000000000000000600082015250565b600061287a601783611d9f565b915061288582612844565b602082019050919050565b600060208201905081810360008301526128a98161286d565b9050919050565b60006128bb82611895565b91506128c683611895565b9250827fffffffffffffffffffffffffffffffffffffffffffffffffffffffffffffffff038211156128fb576128fa61253e565b5b828201905092915050565b600061291182611895565b915061291c83611895565b9250817fffffffffffffffffffffffffffffffffffffffffffffffffffffffffffffffff04831182151516156129555761295461253e565b5b82820290509291505056fea264697066735822122075ae4589c5f0ca232f839ea91d769bff330d13490db4776a61878526d2d933c464736f6c634300080d0033",
  "immutableReferences": {},
  "source": "// SPDX-License-Identifier: GPL-3.0\r\n\r\npragma solidity >=0.8.2 <0.9.0;\r\n\r\ncontract Logistics {\r\n\r\n//      \r\nstruct Order {\r\n    address sender; //  \r\n    address recipient; //  \r\n    uint distance; //      \r\n    string cargoType; //  \r\n    uint price; //  \r\n    bool isCompleted; // ,   ,   \r\n    bool isCancelled; // , ,   \r\n    uint escrow; //       \r\n}\r\n\r\n//       \r\nstruct OrderChange {\r\n    uint orderId; //  \r\n    string changeDescription; //  \r\n    uint timestamp; //  \r\n}\r\n\r\n//      \r\nstruct Review {\r\n    uint orderId; //  ,    \r\n    address reviewer; //  ,  \r\n    string comment; //  \r\n    uint rating; //     1  5\r\n}\r\n\r\n//     ,   \r\nOrder[] public orders;\r\nReview[] public reviews;\r\nOrderChange[] public orderChanges;\r\n\r\n//     \r\nevent OrderChanged(uint orderId, string changeDescription, uint timestamp);\r\nevent OrderAdded(uint orderId, address sender, address recipient, uint price);\r\n\r\n//     \r\nfunction addOrder(address _recipient, uint _distance, string memory _cargoType, string memory _price) public payable {\r\n    require(_recipient != msg.sender, \"Sender and recipient cannot be the same person\");\r\n    //    uint\r\n    uint price = parseUint(_price); \r\n    require(msg.value == price, \"Sent Ether does not match the price of the order\");\r\n\r\n    //       \r\n    orders.push(Order(msg.sender, _recipient, _distance, _cargoType, price, false, false, msg.value));\r\n    emit OrderAdded(orders.length - 1, msg.sender, _recipient, price);\r\n}\r\n\r\n//       uint\r\nfunction parseUint(string memory _value) internal pure returns (uint) {\r\n    bytes memory bytesValue = bytes(_value);\r\n    uint result = 0;\r\n    for (uint i = 0; i < bytesValue.length; i++) {\r\n        result = result * 10 + (uint(uint8(bytesValue[i])) - 48);\r\n    }\r\n    return result;\r\n}\r\n\r\n\r\n\r\n//       \r\nfunction completeOrder(uint _orderId, string memory _comment, uint _rating) public payable {\r\n    require(msg.sender == orders[_orderId].recipient, \"Only the recipient can finalize an order\");\r\n    require(!orders[_orderId].isCompleted, \"The order has already been placed\");\r\n    require(!orders[_orderId].isCancelled, \"The order was canceled\");\r\n\r\n    orders[_orderId].isCompleted = true;\r\n    payable(orders[_orderId].sender).transfer(orders[_orderId].escrow); //    \r\n\r\n    //   \r\n    reviews.push(Review(_orderId, msg.sender, _comment, _rating));\r\n}\r\n\r\n//    \r\nfunction cancelOrder(uint _orderId) public {\r\n    require(msg.sender == orders[_orderId].sender, \"Only the sender can cancel an order\");\r\n    require(!orders[_orderId].isCompleted, \"You cannot cancel a completed order\");\r\n\r\n    orders[_orderId].isCancelled = true;\r\n    \r\n    //      \r\n    payable(orders[_orderId].sender).transfer(orders[_orderId].escrow);\r\n\r\n    //     \r\n    addOrderChange(_orderId, \"The order was canceled\");\r\n}\r\n\r\n//     \r\nfunction addOrderChange(uint _orderId, string memory _changeDescription) internal {\r\n    orderChanges.push(OrderChange(_orderId, _changeDescription, block.timestamp));\r\n    emit OrderChanged(_orderId, _changeDescription, block.timestamp);\r\n}\r\n\r\n//     \r\nfunction getOrderChanges(uint _orderId) public view returns (OrderChange[] memory) {\r\n    uint changeCount = 0;\r\n\r\n    //      \r\n    for (uint i = 0; i < orderChanges.length; i++) {\r\n        if (orderChanges[i].orderId == _orderId) {\r\n            changeCount++;\r\n        }\r\n    }\r\n\r\n    //     \r\n    OrderChange[] memory changes = new OrderChange[](changeCount);\r\n    uint index = 0;\r\n\r\n    for (uint i = 0; i < orderChanges.length; i++) {\r\n        if (orderChanges[i].orderId == _orderId) {\r\n            changes[index] = orderChanges[i];\r\n            index++;\r\n        }\r\n    }\r\n\r\n    return changes;\r\n}\r\n\r\n//       \r\nfunction getOrderCount() public view returns (uint) {\r\n    return orders.length;\r\n}\r\n\r\n//       \r\nfunction getReviewCount() public view returns (uint) {\r\n    return reviews.length;\r\n}\r\n\r\n//       \r\nfunction getReviewsByOrder(uint _orderId) public view returns (Review[] memory) {\r\n    uint reviewCount = 0;\r\n\r\n    //      \r\n    for (uint i = 0; i < reviews.length; i++) {\r\n        if (reviews[i].orderId == _orderId) {\r\n            reviewCount++;\r\n        }\r\n    }\r\n\r\n    //      \r\n    Review[] memory orderReviews = new Review[](reviewCount);\r\n    uint index = 0;\r\n\r\n    for (uint i = 0; i < reviews.length; i++) {\r\n        if (reviews[i].orderId == _orderId) {\r\n            orderReviews[index] = reviews[i];\r\n            index++;\r\n        }\r\n    }\r\n\r\n    return orderReviews;\r\n}\r\n\r\n//      \r\nfunction getOrders(uint startIndex, uint endIndex) public view returns (Order[] memory) {\r\n    require(endIndex >= startIndex, \"End index must be greater than or equal to start index\");\r\n    require(endIndex < orders.length, \"End index out of bounds\");\r\n\r\n    uint length = endIndex - startIndex + 1;\r\n    Order[] memory orderList = new Order[](length);\r\n\r\n    for (uint i = 0; i < length; i++) {\r\n        orderList[i] = orders[startIndex + i];\r\n    }\r\n\r\n    return orderList;\r\n}\r\n\r\n\r\n}\r\n\r\n",
  "sourcePath": "D:\\\\blockchain_kr\\contracts\\Logistics.sol",
  "compiler": {
    "name": "solc",
    "version": "0.8.13+commit.abaa5c0e.Emscripten.clang"
  },
  "schemaVersion": "3.4.16",
  "updatedAt": "2024-09-10T20:47:45.519Z",
  "networkType": "ethereum",
  "devdoc": {
    "kind": "dev",
    "methods": {},
    "version": 1
  },
  "userdoc": {
    "kind": "user",
    "methods": {},
    "version": 1
  }
}